:100000002FC100000C94131D0C943A1D51C1000027
:100010004FC100004DC100004BC100000C94B32142
:1000200047C1000045C1000043C1000041C10000BC
:100030003FC100000C9419223BC1000039C10000EF
:100040000C94611D35C100000C9410200C944220CA
:100050002FC100002DC100002BC1000029C10000EC
:1000600027C1000025C100001F2ADF2B492C4C2C82
:10007000232B562BDE29FF29C229262C152C222CB6
:100080004C2C4C2C4C2CAD2907634236B79BD8A77F
:100090001A39685618AEBAAB558C1D3CB7CC5763AD
:1000A000BD6DEDFD753EF6177231BF000000803F5B
:1000B00008000000BE922449123EABAAAA2ABECD77
:1000C000CCCC4C3E00000080BEABAAAAAA3E0000E9
:1000D0000000BF000000803F0000000000084178E1
:1000E000D3BB4387D1133D190E3CC3BD4282AD2B18
:1000F0003E68EC8276BED98FE1A93E4C80EFFFBE10
:1001000001C4FF7F3F000000000000000008000263
:1001100001000003040700000000000000000102CD
:100120000408102040800102040810200102040885
:100130001020040404040404040402020202020263
:1001400003030303030300000000250028002B0025
:1001500000000000240027002A0002001D3A277436
:10016000694E53E8F5D2CF9C81A6BBCDD0F7EAB952
:10017000A4839E25381F02514C6B76879ABDA0F34D
:10018000EEC9D46F7255481B06213C4A57706D3E2C
:10019000230419A2BF9885D6CBECF1130E2934673E
:1001A0007A5D40FBE6C1DC8F92B5A8DEC3E4F9AA14
:1001B000B7908D362B0C11425F78659489AEB3E011
:1001C000FDDAC77C61465B0815322F5944637E2DEA
:1001D00030170AB1AC8B96C5D8FFE2263B1C015202
:1001E0004F6875CED3F4E9BAA7809DEBF6D1CC9FCA
:1001F00082A5B8031E3924776A4D50A1BC9B86D5D1
:10020000C8EFF24954736E3D20071A6C71564B18B3
:1002100005223F8499BEA3F0EDCAD735280F1241BD
:100220005C7B66DDC0E7FAA9B4938EF8E5C2DF8C8B
:1002300091B6AB100D2A3764795E43B2AF8895C68C
:10024000DBFCE15A47607D2E3314097F6245580B71
:1002500016312C978AADB0E3FED9C4006720D320B5
:1002600011241FBECFEFD8E0DEBFCDBF14E4A0E065
:10027000B1E0E0EDF8E602C005900D92AA35B107B5
:10028000D9F727E4AAE5B4E401C01D92A93AB20760
:10029000E1F711E0C0E3D1E004C02197FE010E9424
:1002A000EC32CE32D107C9F70E94142E0C9466347A
:1002B000A7CECF92DF92EF92FF926B017C018EE08E
:1002C000C816D104E104F10428F48EE0C80ED11C54
:1002D000E11CF11C60E08C2D0E948A1EC601FF907B
:1002E000EF90DF90CF9008950895CF93DF93EB01C7
:1002F0000E94441E99838883DF91CF9108950895C9
:10030000662311F061E001C060E00C948A1E662350
:1003100011F061E001C060E00C94C61EFC0191E0A8
:1003200080916E47811190E0928308954F925F9281
:100330006F927F928F929F92AF92BF92CF92DF92F5
:10034000EF92FF926B017C0149015A010E94640FF8
:100350008111B1C0C501B4010E94640F8111ABC00D
:10036000C501B4010E94210F882391F1E894F7F8A8
:1003700020E030E040E85FE3C701B6010E94132FA0
:10038000882309F4C0C020E030E040E85FE3C70103
:10039000B6010E94063120E030E0A901181684F46D
:1003A000C501B4010E94063118160CF0A8C0C09017
:1003B0009547D0909647E0909747F0909847A9C00E
:1003C000C501B4010E94063118160CF498C0EFCF95
:1003D00024013501E89477F820E030E0A901C30159
:1003E000B2010E94132F882309F48DC020E030E071
:1003F00040E85FE3C301B2010E94132F811113C0D3
:1004000020E030E0A901C501B4010E9406311816B0
:100410000CF47FC0A701960160E070E080E89FE3E4
:100420000E94172F10C020E030E040E050E4C501EA
:10043000B4010E94132F811109C0A7019601C701C1
:10044000B6010E947A316B017C0163C020E030E08C
:1004500040E05FE3C501B4010E94132F20E030E0CB
:10046000A901811116C0C701B6010E94063187FD9E
:100470002BC0C701B601FF90EF90DF90CF90BF90E7
:10048000AF909F908F907F906F905F904F900C9463
:100490002D32C701B6010E94132F87FF1EC0C50170
:1004A000B4010E9419309B01AC01C501B4010E9446
:1004B0000631181694F4C0909947D0909A47E0906E
:1004C0009B47F0909C4725C020E030E0A901C70180
:1004D000B6010E94132F87FDEECFA5019401C7013D
:1004E000B601FF90EF90DF90CF90BF90AF909F90BC
:1004F0008F907F906F905F904F900C94DD31C12C66
:10050000D12C760106C0C12CD12C80E8E82E8FE3D7
:10051000F82EC701B601FF90EF90DF90CF90BF900B
:10052000AF909F908F907F906F905F904F900895C5
:10053000E0911447F0911547AAEFB5E45C964D9110
:100540005D916D917C915F9740835183628373834A
:1005500090968D919D910D90BC91A02D8483958353
:10056000A683B78308952F923F924F925F926F9226
:100570007F928F929F92AF92BF92CF92DF92EF9233
:10058000FF920F931F93CF93DF93CDB7DEB7A29760
:100590000FB6F894DEBF0FBECDBFE0907447F09069
:1005A0007547009177471091784721E0E216F104F2
:1005B000B1F580915B4790915C47A0915D47B09108
:1005C0005E47BC01CD016F5F7F4F8F4F9F4F0E94F1
:1005D000DC2F20915F4730916047409161475091F7
:1005E00062470E947A3160939F467093A046809341
:1005F000A1469093A24690916D4780916E479111CC
:1006000005C091E0811190E090936F478F5F8A3031
:1006100010F40C94290B10926E470C942B0BE114E0
:10062000F10481F4E091CF46F091D0460190F08141
:10063000E02D80819181A281B381F8018083918333
:10064000A283B38380918B4690918C46892B01F1D4
:100650008091FA459091FB45A091FC45B091FD45F4
:100660008093854790938647A0938747B0938847A8
:100670008091FE459091FF45A0910046B0910146C2
:100680008093894790938A47A0938B47B0938C4778
:10069000D8018D909D90AD90BC90EA94EF28A1F484
:1006A00080916F47882381F08091734690917446C2
:1006B000A0917546B091764680930246909303468A
:1006C000A0930446B09305462091B2013091B30146
:1006D0004091B4015091B501C501B4010E94132F9E
:1006E00018168CF08090AA069090AB06A090AC06ED
:1006F000B090AD068091A20B9091A30BA091A40B9A
:10070000B091A50BABC02091A6063091A7064091F1
:10071000A8065091A906C501B4010E94132F87FFB6
:100720008DC036EBE32E31E0F32E612C712C83016A
:100730000F5F1F4FF70121913191419151917F013D
:10074000C501B4010E94132F181634F40D33F1E0E3
:100750001F0711F03801EBCFF301EE0FFF1FEE0F73
:10076000FF1FEE54FE4FC080D180E280F380A701CE
:100770009601C501B4010E94AE2E4B015C01000F31
:10078000111F000F111FF801EE54FE4FA701960133
:1007900060817181828193810E94AE2E9B01AC01A8
:1007A000C501B4010E94172F6B017C01F301EE0F0C
:1007B000FF1FEE0FFF1FE255F94FD301AA0FBB1F1A
:1007C000AA0FBB1FA655B94F2D913D914D915C913C
:1007D00060817181828193810E94AE2E9B01AC0168
:1007E000C701B6010E947A314B015C01F301EE0FA3
:1007F000FF1FEE0FFF1FEA55F44FC301880F991F2B
:10080000880F991F8E55944FDC012D913D914D918C
:100810005C9160817181828193810E94AE2E9B01E7
:10082000AC01C701B6010E947A31609336467093DD
:100830003746809338469093394618C080909E0B77
:1008400090909F0BA090A00BB090A10B8091961060
:1008500090919710A0919810B0919910809336467E
:1008600090933746A0933846B093394640908547D9
:1008700050908647609087477090884720911A3A39
:1008800030911B3A40911C3A50911D3AC301B2017C
:100890000E94132F87FF70C0209162383091633817
:1008A0004091643850916538C301B2010E9406310D
:1008B00087FD62C066EBE62E61E0F62E212C312C1E
:1008C00081010F5F1F4FF7012191319141915191AA
:1008D0007F01C301B2010E94132F18162CF40E36AB
:1008E000110511F01801ECCFF101EE0FFF1FEE0F13
:1008F000FF1FEE59F74CC080D180E280F380A70142
:100900009601C301B2010E94AE2E2B013C01F10100
:10091000EE0FFF1FEE0FFF1FEA59F74CA7019601DC
:1009200060817181828193810E94AE2E9B01AC0116
:10093000C301B2010E94172F6B017C01F101EE0F80
:10094000FF1FEE0FFF1FEA5AF04CC101880F991FDD
:10095000880F991F8E5A904CDC012D913D914D913D
:100960005C9160817181828193810E94AE2E9B0196
:10097000AC01C701B6013DC020EE33EF43E45BE3B9
:10098000C301B2010E947A3123EC35E343E053E422
:100990000E94AE2E23E333E948E853E40E94AF2ED1
:1009A00060933A4670933B4680933C4690933D4615
:1009B0002AE939E948E553E40E94172F2FE335E38C
:1009C00046E351ECB3DC27EB3DE043E25BE30E94FE
:1009D0007A3120E030E84FE853E40E94172F9B0162
:1009E000AC0160913A4670913B4680913C469091B3
:1009F0003D460E947A3160933A4670933B4680931D
:100A00003C4690933D464090364650903746609025
:100A1000384670903946A3019201609189477091E0
:100A20008A4780918B4790918C470E94172F6B01CA
:100A30007C018091854790918647A0918747B0912E
:100A4000884789839A83AB83BC8328EE34EA42ECDF
:100A50005AE4BC01CD010E94AF2E9B01AC010E9463
:100A60007A319B01AC016AE472E585EB97E50E945F
:100A7000172F9B01AC01C301B2010E947A312B01F7
:100A80003C01C0921646D0921746E0921846F0926A
:100A900019469B01AC01C501B4010E94132F181621
:100AA000ACF02DEC3CEC4CEC5DE369817A818B8100
:100AB0009C810E94132F87FF09C010921A46109242
:100AC0001B4610921C4610921D4642C020E030E0AA
:100AD00040E05FE3609102467091034680910446D6
:100AE000909105460E947A3120913A4630913B46DA
:100AF00040913C4650913D460E947A316D837E8301
:100B00008F839887A7019601C701B6010E947A31A9
:100B10009B01AC016D817E818F8198850E947A3125
:100B200029E436E240E35CE30E947A319B01AC01A8
:100B3000C501B4010E94AE2EA30192010E94AE2E07
:100B400060931A4670931B4680931C4690931D46F3
:100B500029E436E240E35CE360910246709103468B
:100B600080910446909105460E947A312B013C0108
:100B700060931E4670931F468093204690932146B3
:100B8000C0922246D0922346E0922446F092254617
:100B900089819A81AB81BC818093264690932746B8
:100BA000A0932846B093294620913A4630913B467F
:100BB00040913C4650913D4620932A4630932B4627
:100BC00040932C4650932D4680922E4690922F466D
:100BD000A0923046B09231466091E6427091E74271
:100BE0008091E8429091E9420E94172F69877A87A5
:100BF0008B879C87A7019601C701B6010E947A31B5
:100C00009B01AC0163EC75EF8CE991E40E94172F16
:100C10006D837E838F83988760933A4670933B46BB
:100C200080933C4690933D4629813A814B815C817B
:100C30006091E2427091E3428091E4429091E542FA
:100C40000E94AE2E69837A838B839C8360933E4699
:100C500070933F4680934046909341466D817E81DC
:100C60008F819885905829813A814B815C810E94BF
:100C70007A316B017C010E94842F9B01AC01C7017A
:100C8000B6010E947A316D8B7E8B8F8B988FB091DD
:100C90009D47A0919E47F0919F47E091A04709EEA4
:100CA00013E0C12CD12CE12C90ECF92E2B2F3A2FF4
:100CB0004F2F5E2FC701B6010E94AE2E9F77A7016E
:100CC00096015F770E94172F2DEB37E346E855E337
:100CD0000E94063118160CF444C0C0924246D092CD
:100CE0004346E0924446F092454669857A858B8575
:100CF0009C859058A70196010E947A316B017C0176
:100D00002D813E814F81588569857A858B859C85AB
:100D10000E947A3129813A814B815C810E947A312B
:100D20009B01AC01C701B6010E94AE2E29813A8118
:100D30004B815C810E94172F609336467093374633
:100D400080933846909339460E94640F811174C095
:100D500040903646509037466090384670903946FD
:100D60006BC00150110909F4B8CFC701B6010E9448
:100D7000842F4B015C019B01AC01C701B6010E94AD
:100D80007A312D893E894F89588D0E94AE2E6D870C
:100D90007E878F87988B20E030E040E85FE3C701D3
:100DA000B6010E94AF2EA50194010E947A314B0139
:100DB0005C0120E030E040E050E4C701B6010E9451
:100DC000AF2E2D853E854F8558890E947A31698BDB
:100DD0007A8B8B8B9C8BA7019601C701B6010E9471
:100DE000AF2E20E030E040E050E40E94AF2E9B01A7
:100DF000AC0169897A898B899C890E94172F9B0194
:100E0000AC01C501B4010E94AE2E9B01AC016D8501
:100E10007E858F8598890E94172F9B01AC01C701A1
:100E2000B6010E94AE2EBC2DAD2DFE2DEF2DAB01D7
:100E3000BC016A017B013ACF2091E2423091E3424A
:100E40004091E4425091E5426091264670912746D8
:100E500080912846909129460E940631181634F454
:100E6000412C512C80E8682E8FE3782E20911E466D
:100E700030911F464091204650912146C301B20156
:100E80000E94AE2E2091DE423091DF424091E0423E
:100E90005091E1420E947A316B017C012091DA424B
:100EA0003091DB424091DC425091DD4260912E4610
:100EB00070912F4680913046909131460E94132FB9
:100EC00087FD04C020E030E0A90104C020E030E04C
:100ED00040E85FE3C701B6010E947A316B017C01F3
:100EE0002091EA423091EB424091EC425091ED4228
:100EF0006091224670912346809124469091254628
:100F00000E94132F87FD04C020E030E0A90104C037
:100F100020E030E040E85FE3C701B6010E947A318B
:100F2000609306467093074680930846909309465F
:100F300000917447109175470130110561F42091BB
:100F40006F47222341F020918D46209349462091FE
:100F50008E4620934A462091EE423091EF424091D6
:100F6000F0425091F1420E947A314B015C013324EE
:100F700033942091F2423091F3424091F4425091E7
:100F8000F5420E94063118160CF0312C309248467A
:100F9000E894B7F80130110509F05CC0C0908746AD
:100FA000D0908846E0908946F0908A46C701B60105
:100FB0000E94DE2F2B013C0120910243309103431C
:100FC00040910443509105430E94132F87FF0BC0AB
:100FD000F7FC09C08091FA429091FB42A091FC423B
:100FE000B091FD4203C080E090E0DC0180930A46AE
:100FF00090930B46A0930C46B0930D4620E030E052
:1010000040E85FE36091FE427091FF4280910043AF
:10101000909101430E94AE2E9B01AC01C301B2012D
:101020000E94063187FD09C01092874610928846BB
:101030001092894610928A460DC09FEFC91AD90AAC
:10104000E90AF90AC0928746D0928846E09289461A
:10105000F0928A4631E020E0332029F08091494621
:10106000882331F004C080914A46811101C030E0EC
:10107000832F922FBC01990F880B990B0E94DE2FB2
:101080006B017C012091F6423091F7424091F84289
:101090005091F942C501B4010E940631181624F09E
:1010A00060E070E0CB0104C060E070E080E89FE3A6
:1010B00020910A4630910B4640910C4650910D46C6
:1010C0000E947A319B01AC01C701B6010E947A31BE
:1010D0006B017C0160930E4670930F46809310461F
:1010E0009093114620E030E040E853E40E94132F33
:1010F00087FF0EC020E030E0A901C701B6010E94C1
:10110000063187FD07C0C701B6010E94B02F03C09A
:101110006FEF01C060E082E0FAD86091484684E059
:10112000F6D88091744790917547019759F52091B1
:101130000A4330910B4340910C4350910D43609111
:1011400016467091174680911846909119460E9454
:10115000132F18161CF081E08093764710928C466E
:1011600010928B4683E090E00E94C01CE09177478C
:10117000F0917847408151816281738181E090E0F4
:101180000E94BC1C8091744790917547019709F0AB
:1011900084C28090704790907147A0907247B09041
:1011A000734720E030E040E85FEBC501B4010E94E6
:1011B000132F882381F16091634770916447809178
:1011C0006547909166470E94DC2F2AE037ED43EA9D
:1011D0005BE30E947A316B017C019B01AC01C5018C
:1011E000B4010E94AE2E4B015C0120E030E040E0F3
:1011F00054E3C701B6010E947A319B01AC01C501DD
:10120000B4010E940631181634F082E393E49093FF
:10121000904680938F4680917647882331F082E311
:1012200093E49093904680938F46E091CF46F0915F
:10123000D04620813181D9018D919D910D90BC9135
:10124000A02D8D839E83AF83B88780919F46909118
:10125000A046A091A146B091A2468D8B9E8BAF8BEC
:10126000B88FE091A346F091A446C080D180E2807F
:10127000F380E091D346F091D44660807180E09194
:101280009746F091984600811181228033804480F6
:10129000558096819987A781AD87E0919546F09119
:1012A00096461182108288E0F301D80101900D92D8
:1012B0008A95E1F7E091CD46F091CE4631822082C9
:1012C00037D920E030E040E05FE3C701B6010E947B
:1012D0007A314B015C01F1012081318142815381DE
:1012E0000E947A319B01AC01D8016D917D918D9165
:1012F0009C910E94AF2EF30160837183828393835C
:10130000D10114962D913D914D915C911797C50196
:10131000B4010E947A319B01AC01F80164817581AE
:10132000868197810E94AF2ED30114966D937D9391
:101330008D939C931797E091CF46F091D0462081F2
:1013400031813A832983A50194016D817E818F814A
:1013500098850E94AF2EA981BA816D937D938D935C
:101360009C931397E091CD46F091CE4651824082F6
:10137000FAD8DED820E030E0A901C701B6010E940A
:101380007A314B015C0120E030E040E45FE3C701CB
:10139000B6010E947A3169837A838B839C83F10141
:1013A0002081318142815381C501B4010E947A318B
:1013B000698B7A8B8B8B9C8BD2012D913D914D91BA
:1013C0005C9169817A818B819C810E947A319B0139
:1013D000AC0169897A898B899C890E94AF2E9B0117
:1013E000AC01F80160817181828193810E94AF2EEE
:1013F000D3016D937D938D939C931397F101248179
:10140000358146815781C501B4010E947A314B0173
:101410005C01D20114962D913D914D915C911797ED
:1014200069817A818B819C810E947A319B01AC0118
:10143000C501B4010E94AF2E9B01AC01F80164818B
:101440007581868197810E94AF2ED30114966D938A
:101450007D938D939C931797E091CF46F091D04662
:10146000A080B18029813A814B815C816D817E8130
:101470008F8198850E94AF2EF501608371838283EE
:101480009383E091CD46F091CE46298520833D851A
:10149000318369D84DD829E33EE843E65EE3C701CE
:1014A000B6010E947A31698B7A8B8B8B9C8B2BEAED
:1014B0003AEA4AEA5EE3C701B6010E947A31698FCF
:1014C0007A8F8B8F9C8F29E33EE843EE5EE3C70162
:1014D000B6010E947A316D8F7E8F8F8F98A31AA3E9
:1014E00009A35E824D82898589839D859A838301C4
:1014F000A9A1BAA11896BE87AD87E9A1FAA18191E9
:101500009191A191B191FAA3E9A389879A87AB87B9
:10151000BC87D1016D917D918D919D911D01ED81D2
:10152000FE814190519061907190FE83ED83A9817D
:10153000BA81CD90DD90ED90FD90BA83A983298981
:101540003A894B895C890E947A314B015C01298D73
:101550003A8D4B8D5C8DC301B2010E947A319B01A3
:10156000AC01C501B4010E94AF2E4B015C012D8D71
:101570003E8D4F8D58A1C701B6010E947A319B0163
:10158000AC01C501B4010E94AF2E9B01AC0169857D
:101590007A858B859C850E94AF2EF80161937193AB
:1015A000819391938F0129A13AA18D859E8528175A
:1015B000390709F0A2CFE091CF46F091D0460190D3
:1015C000F081E02D8D899E89AF89B88D80839183CC
:1015D000A283B383E0919546F091964681E090E036
:1015E0009183808380915B4790915C47A0915D4798
:1015F000B0915E470196A11DB11D80935B4790930A
:101600005C47A0935D47B0935E4780919F46909161
:10161000A046A091A146B091A246E0917747F091F3
:10162000784780839183A283B383809163479091AD
:101630006447A0916547B09166470196A11DB11D11
:101640008093634790936447A0936547B093664740
:1016500024C080936E478091CE429091CF42A0915A
:10166000D042B091D1428093FA459093FB45A0932C
:10167000FC45B093FD458091D2429091D342A09118
:10168000D442B091D5428093FE459093FF45A093FC
:101690000046B09301460C942203A2960FB6F8942C
:1016A000DEBF0FBECDBFDF91CF911F910F91FF9095
:1016B000EF90DF90CF90BF90AF909F908F907F90F2
:1016C0006F905F904F903F902F9008958F929F92D0
:1016D000AF92BF92CF92DF92EF92FF92CF93DF93C0
:1016E000C090CA42D090CB42E090CC42F090CD4224
:1016F000A7019601609163467091644680916546AA
:10170000909166460E94132F882341F0C092634651
:10171000D0926446E0926546F092664680916146BA
:10172000909162460E947F0143E050E066E476E4D7
:1017300080916146909162460E947501C0900E436F
:10174000D0900F43E0901043F090114360914646D3
:101750007091474680E090E00E94DC2FA70196013F
:101760000E94AE2E4B015C01A701960160911243CD
:101770007091134380911443909115430E94AE2EB3
:101780009B01AC01C501B4010E94172F20911643A3
:101790003091174340911843509119430E947A3178
:1017A0006B017C016093124670931346809314463C
:1017B0009093154620911E4330911F434091204342
:1017C0005091214360911A4370911B4380911C43B7
:1017D00090911D430E94AE2E9B01AC01D1E0C70148
:1017E000B6010E94063118160CF0D0E0C1E020913D
:1017F0002243309123434091244350912543C70114
:10180000B6010E94063118160CF0C0E0A70196013F
:10181000C701B6010E947A312EE939E344ED54EB59
:101820000E947A314B015C0129E63AE347EB58E329
:10183000C701B6010E947A319B01AC01C501B40118
:101840000E94AF2E2AE037EB4EE358E30E94AF2E02
:101850002DEC3CEC4CE85FE30E947A3129E436E25F
:1018600040E35CE30E94172F2DEC3CEC4CEC5EE374
:101870000E94AF2E60933246709333468093344675
:101880009093354660937346709374468093754683
:1018900090937646D0938D46C0938E46609167476D
:1018A000709168478091694790916A470E94DC2F48
:1018B0002DEC3CEC4CE45DE30E947A31AB01BC01C1
:1018C00082E090E00E94BC1C80916747909168473D
:1018D000A0916947B0916A470196A11DB11D8093FF
:1018E000674790936847A0936947B0936A47DF9131
:1018F000CF91FF90EF90DF90CF90BF90AF909F90EF
:101900008F900895CF92DF92EF92FF92CF9384E071
:1019100090E060D2EFE8F6E486EFDF011D928A9551
:10192000E9F784E797E4909396468093954687E796
:1019300097E49093D0468093CF468FE597E49093B9
:10194000A4468093A34684E197E49093CE46809387
:10195000CD468EE097E49093D4468093D34683E5BA
:1019600097E49093D2468093D14685E597E490938F
:10197000D6468093D54680E197E49093D8468093ED
:10198000D74682E197E49093DA468093D946F09364
:10199000FA46E093F946F0939446E093934681E04B
:1019A00090E090937547809374478BE197E4909310
:1019B0003C4780933B4783E297E490933E47809374
:1019C0003D478BE297E49093404780933F4783E302
:1019D00097E49093424780934147E5E8F7E4F0931A
:1019E0000F47E0930E478BE397E4909398468093DC
:1019F000974686E493E490939A468093994629E724
:101A000037E4309378472093774780E090E0A0EF69
:101A1000B1E48093704790937147A0937247B0935D
:101A200073478AE097EDA3EABBE380935F47909307
:101A30006047A0936147B0936247C1E0C0936B4792
:101A400083E591EDA5EBB9E6809343479093444736
:101A5000A0934547B093464781E098E8AAE9B9E6E4
:101A60008093474790934847A0934947B0934A478C
:101A70008AE994E1A0E8BAEA80934B4790934C47F7
:101A8000A0934D47B0934E4783E59AE0A1E6BFE1AE
:101A900080934F4790935047A0935147B09352473C
:101AA0008CE794E490939246809391468EE694E47A
:101AB00090937D4480937C4487EF93E490936F44AC
:101AC00080936E44909371448093704490937344D8
:101AD00080937244909375448093744490937744B8
:101AE00080937644909379448093784490937B4498
:101AF00080937A4489E597E490938144809380446D
:101B000083E497E490937F4480937E4430938344AE
:101B10002093824481E52AEF35E4D9011D928A950C
:101B2000E9F788E0DF011D928A95E9F784E4EBE4A8
:101B3000F6E4DF011D928A95E9F7EAE5F4E484E131
:101B4000DF011D928A95E9F7F0935A47E0935947D0
:101B500080E190E090935B4480935A4482E991E065
:101B600090935D4480935C4482E791E090935F445E
:101B700080935E448EE191E0909361448093604451
:101B80008AE091E090936344809362448091CE42D6
:101B90009091CF42A091D042B091D1428093FA452A
:101BA0009093FB45A093FC45B093FD458091D242B4
:101BB0009091D342A091D442B091D5428093FE45FA
:101BC0009093FF45A0930046B09301468091D64282
:101BD0009091D742A091D842B091D94280930246C9
:101BE00090930346A0930446B09305468091264304
:101BF000809349468091274380934A46C12CD12C3B
:101C00007601C394C0926E46D0926F46E0927046C1
:101C1000F092714661E082E00E948001C0937246BA
:101C20001092674610926C46C0926846D092694600
:101C3000E0926A46F0926B4661E084E00E94800187
:101C4000C0936C4622E32093514693E3909352460F
:101C500084E38093534685E38093544686E38093E0
:101C6000554687E38093564688E38093574689E339
:101C70008093584681E38093594630E330935A4627
:101C800080935B4680935C4680935D4620935E46DE
:101C900080935F469093604610924B468091CA4273
:101CA0009091CB42A091CC42B091CD4280936346BB
:101CB00090936446A0936546B09366461092504652
:101CC000C0924C46D0924D46E0924E46F0924F461E
:101CD00064E070E080E090E00E94590190936246D9
:101CE0008093614620E030E0A90160E070E00E944E
:101CF0007401C093504680916B47882381F0109205
:101D00008547109286471092874710928847109215
:101D1000894710928A4710928B4710928C4721E096
:101D200030E030938C4620938B464091D6425091C0
:101D3000D7426091D8427091D942409373465093F4
:101D400074466093754670937646909126439093BF
:101D50008D469091274390938E46811110926B4748
:101D6000CF91FF90EF90DF90CF90089580916D46D6
:101D7000811103C081E080936D4680916746811197
:101D800003C081E08093674680914B46811103C078
:101D900081E080934B46089560E070E080E89FE723
:101DA000089560E070E080E89FE7089560E070E0EB
:101DB00080E89FEF089560E070E080E89FEF08956D
:101DC00060E070E080EC9FEF089560E070E080ECF0
:101DD0009FEF0895F5DF6093994770939A4780933A
:101DE0009B4790939C47F1DF60938D4770938E479C
:101DF00080938F4790939047CFDF60939547709380
:101E000096478093974790939847CBDF609391478D
:101E1000709392478093934790939447C7DF609362
:101E20009D4770939E4780939F479093A047C3DF41
:101E30006093A1477093A2478093A3479093A447D0
:101E40000895CF92DF92EF92FF92CF936B017C01C6
:101E500020919547309196474091974750919847E8
:101E60000E94132FC1E0882371F020919D4730918B
:101E70009E4740919F475091A047C701B6010E94DD
:101E8000132F8111C0E08C2FCF91FF90EF90DF9046
:101E9000CF9008950F931F938B019C01002711276A
:101EA00020783F770115110520483F4749F4AB01E1
:101EB000BC016F77772781E0452B462B472B09F430
:101EC00080E01F910F910895E5CFEF92FF920F935D
:101ED0001F93CF93DF93DC01EA01F90114968D91F2
:101EE0009C91159712960D911C911397080F191F2D
:101EF0002881398118964D915C91199742175307A3
:101F000028F04D915C911197452B39F17801E21A37
:101F1000F30A18964D915C911997481B590B4E0D79
:101F20005F1D4617570794F1A901460F571F401729
:101F30005107E0F0F182E082338322836E197F093A
:101F400075836483161617061CF4382F292F02C0D8
:101F500030E020E03683278313C018968D919C9142
:101F60001997821B930B8617970784F07183608300
:101F70003383228315821482178216828881998185
:101F8000680F791F7983688380E001C081E0DF9169
:101F9000CF911F910F91FF90EF900895CF92DF9214
:101FA000EF92FF92CF93DF936B017C0184E48C9DD1
:101FB000E0018D9DD00D1124C857DB4B8AA99BA948
:101FC000009721F00E94B5331BAA1AAA84E48C9DC5
:101FD000F0018D9DF00D1124E857FB4B86A997A9C0
:101FE000009711F00E94B53384E48C9DF0018D9D23
:101FF000F00D1124E857FB4B138A128A168A178AB0
:10200000108E118E128E138E148E158E168E178EC4
:1020100010A211A281E090E093A382A315A214A2C2
:1020200016A217A210A611A613A612A615A614A6EC
:1020300016A617A610AA11AA13AA12AA15AA14AABC
:1020400017AA16AA11AE10AE12AE13AE14AE15AE8C
:10205000DF01DE961D921D921D921C921397EE5B7E
:10206000FF4F11821082DF91CF91FF90EF90DF90B0
:10207000CF9008950F931F93CF93DF93EB01DC0173
:102080008D919C91FC01A681B781E881F98123E0C3
:10209000EE0FFF1F2A95E1F712962D913C911397B1
:1020A000E20FF31F00811181AC85BD859D01220FD8
:1020B000331FDC0112968D919C911397D901A80FC3
:1020C000B91F8D919C9124813581232B19F461E0F6
:1020D00070E002C062E070E0689F9001699F300D7F
:1020E000789F300D112488859985289FB001299FFC
:1020F000700D389F700D1124EC81FD812E9FC00161
:102100002F9F900D3E9F900D1124800F911FFA017B
:102110009183808373836283DF91CF911F910F91AD
:1021200008952F923F924F925F926F927F928F927B
:102130009F92AF92BF92CF92DF92EF92FF920F9356
:102140001F93CF93DF9300D000D000D0CDB7DEB780
:10215000DC011496ED91FC9115970190F081E02D32
:10216000808591859A838983A281B381BC83AB8367
:10217000FB0181909190A190B1908F01C12CD12C45
:102180007601C814D904EA04FB040CF05FC0D8013E
:1021900014964D905D906D907C90179718964D9188
:1021A0005D916D917C911B97F8017096FE83ED8394
:1021B000F801A081B18183E0AA0FBB1F8A95E1F7E6
:1021C000E981FA8182819381A80FB91F2D903C90FB
:1021D0001197F80124853585220F331F8B819C814F
:1021E000280F391FF9010081118114968D919C915E
:1021F0001597892B19F481E090E002C082E090E00D
:10220000809F9001819F300D909F300D1124249F5D
:102210008001259F100D349F100D1124249DC001B5
:10222000259D900D349D900D1124A8016D817E8116
:10223000820D931D0E944D348D819E81080F191FC0
:102240009FEFC91AD90AE90AF90A9BCF26960FB659
:10225000F894DEBF0FBECDBFDF91CF911F910F91DC
:10226000FF90EF90DF90CF90BF90AF909F908F90B6
:102270007F906F905F904F903F902F900895CF93F5
:10228000DF93DB01A85DBC4B2C91222369F024E491
:10229000269FF001279FF00D1124E857FB4BEF011B
:1022A00019922A95E9F71C9224E4269FF001279FB2
:1022B000F00D1124E857FB4B148215821682178209
:1022C0001186108613861286118A108A1786168642
:1022D000DF91CF9163CE2F923F924F925F926F9298
:1022E0007F928F929F92AF92BF92CF92DF92EF92A6
:1022F000FF920F931F93CF93DF93CDB7DEB728974D
:102300000FB6F894DEBF0FBECDBF6B017C011A0182
:1023100084E48C9D90018D9D300D112428573B4BFA
:10232000F90184819581A681B781892B8A2B8B2B1A
:1023300009F4B8C0A12CB12C412C512C32013887A2
:102340002F83C90104969A838983D9011896BC8387
:10235000AB83E981FA8180819181A281B3814816A2
:1023600059066A067B0694F5AB81BC81ED91FC9120
:10237000EA0DFB1D228133818901812C912C82146D
:102380009304C4F4D801ED91FC91309769F08481F5
:1023900095812D833E830E94B533F8018081918120
:1023A0000E94B5333E812D81FFEF8F1A9F0A0E5F89
:1023B0001F4FE5CFC9010E94B5338FEF481A580A65
:1023C000680A780A94E0A90EB11CC3CFAF81B88522
:1023D00018968D919C9119970E94B533EF81F885DD
:1023E00082859385892B59F1A12CB12C812C912CBC
:1023F00084E48C9D80018D9D100D11240E561B4B85
:102400008214930484F4D801ED91FC91EA0DFB1D34
:10241000848195810E94B533BFEF8B1A9B0AEEE051
:10242000AE0EB11CEDCF84E48C9DF0018D9DF00DBE
:102430001124E857FB4B828593850E94B53384E4D1
:102440008C9D90018D9D300D1124890108571B4BE7
:10245000D80150968D919C9151970E94B533F80107
:10246000868597850E94B533C701B60197DDC70100
:10247000B60128960FB6F894DEBF0FBECDBFDF9130
:10248000CF911F910F91FF90EF90DF90CF90BF9071
:10249000AF909F908F907F906F905F904F903F9004
:1024A0002F90EDCE28960FB6F894DEBF0FBECDBFAD
:1024B000DF91CF911F910F91FF90EF90DF90CF9020
:1024C000BF90AF909F908F907F906F905F904F9054
:1024D0003F902F90089524E4269FF001279FF00D50
:1024E0001124E857FB4B828993890497029758F48B
:1024F00085E090E0938B828B8FEF9FEFDC01828FE2
:10250000938FA48FB58F08952F923F924F925F9231
:102510006F927F928F929F92AF92BF92CF92DF92F3
:10252000EF92FF920F931F93CF93DF93CDB7DEB758
:10253000E0970FB6F894DEBF0FBECDBF9AA389A374
:102540001B016A012801390184E4849D8001859D75
:10255000100D1124980128573B4B7901D9014D9258
:102560005D926D927C921397AB01C301B201B3DE11
:10257000F801E457FB4BD6014D915D916D917D9132
:102580008D01CA01408351836283738364E070E0EC
:102590000E940633F70191878087892B09F49FC138
:1025A0001E8E1D8E198E1A8E1B8E1C8EF8A2EF8E1B
:1025B00097012C5F3F4F38A72FA32C5F3F4F3AA7BF
:1025C00029A7EFA1F8A580819181A281B381298DEE
:1025D0003A8D4B8D5C8D281739074A075B070CF045
:1025E000E7C0A9A5BAA58D919C912D8D3E8D280F90
:1025F000391F3A8B298BD801ED91FC91EE0FFF1F0B
:10260000A9A1BAA18D919C91E80FF91F80819181B8
:10261000F90191838083D80114962D913D914D91BC
:102620005C9117972BA33CA34DA35EA3085F1F4F9C
:1026300062E070E0C1010E940633E989FA89938360
:102640008283892B09F44BC11D8A1E8A1F8A188E2A
:102650002D893E894F89588D8BA19CA1ADA1BEA12A
:10266000281739074A075B070CF08FC0D801ED9097
:10267000FC90EE0CFF1CE989FA89C280D380CE0C55
:10268000DF1C68E070E081E090E00E940633D60134
:102690008D939C93E989FA8982819381FC01EE0DE7
:1026A000FF1DC080D180C114D10409F418C1F80104
:1026B00084819581A681B781F60180839183A2836D
:1026C000B383085F1F4F181619061A061B0634F04D
:1026D0001C8A1B8A812C912C54010CC064E070E090
:1026E0000E940633D60115969C938E931497892BDE
:1026F00079F7F5C0F60180819181A281B3818816B6
:102700009906AA06BB06A4F5F601E480F5802B899C
:102710003C89E20EF31EF801DE01119680E1019082
:102720000D928A95E1F7005F1F4FA701BE016F5F11
:102730007F4FA9A1BAA114968D919C9115979ADC0F
:10274000F60126813781D70112968D919C911397BE
:10275000820F931F97838683BFEF8B1A9B0AAB0A66
:10276000BB0A2B893C892C5F3F4F3C8B2B8BC2CF04
:102770002D893E894F89588D2F5F3F4F4F4F5F4FB7
:102780002D8B3E8B4F8B588F63CF298D3A8D4B8D80
:102790005C8D2F5F3F4F4F4F5F4F298F3A8F4B8F8D
:1027A0005C8F2D8D3E8D2C5F3F4F3E8F2D8F09CF3F
:1027B0006EE070E0C1010E940633AF8DB8A11B9698
:1027C0009C938E931A97812C912CA12CB12CC12C07
:1027D000D12C24E4249DC001259D900D11249C0141
:1027E0002E563B4B3A8B298B21E030E0A214B304E8
:1027F0000CF04DC0D8014D915D916D917D918D0191
:10280000E989FA89E080F180E80CF91C77FD67C05E
:10281000D70111963C932E93411551056105710521
:10282000A9F0CA012FA738AB4BA75CA76DA77EA75D
:102830000E942033F701958384832FA538A94BA5E7
:102840005CA56DA57EA5892B31F449C0D7011596ED
:102850001C921E921497F7015383428384819581C1
:1028600097838683918780871386128681E090E024
:10287000452B462B472B11F480E090E0C80ED91E63
:10288000FFEFAF1ABF0A4EE0840E911CAFCF84E475
:10289000849D8001859D100D112408571B4BD80184
:1028A0001D961C921E921C97C60133E0880F991F3B
:1028B0003A95E1F70E942033F801918B808B892BA8
:1028C00071F0C601880F991F0E942033D8011F960E
:1028D0009C938E931E97892B11F080E005C0A10177
:1028E000C301B201F8DC81E0E0960FB6F894DEBFD8
:1028F0000FBECDBFDF91CF911F910F91FF90EF9051
:10290000DF90CF90BF90AF909F908F907F906F900F
:102910005F904F903F902F9008952F923F924F924B
:102920005F926F927F928F929F92AF92BF92CF925F
:10293000DF92EF92FF920F931F93CF93DF93CDB768
:10294000DEB768970FB6F894DEBF0FBECDBF9C8B85
:102950008B8BDB0149015A0124E4289DC001299D8C
:10296000900D11249C0128573B4B79012D913C91EE
:102970001197F701358B248BFC01E256FB4B149623
:102980004D915D916D917C91179740835183628346
:102990007383FC01EE55FB4B18964D915D916D9143
:1029A0007C911B974083518362837383FC01EA55BA
:1029B000FB4B1C964D915D916D917C911F974083CF
:1029C000518362837383FC01EA54FB4B50965C9104
:1029D000509751964C91519752963C9152975396DD
:1029E0002C91539750834183328323838D010C5E56
:1029F0001F4F852F942F181619060CF068C0880FEA
:102A0000991F880F991F0E942033D701D3969C935A
:102A10008E93D297892B09F4BCC0212C312C412CE8
:102A2000512C32019701225D3F4F3E8B2D8B2C5F45
:102A30003F4F388F2F8B2E5F3F4F3A8B298BB3013F
:102A4000A2012FEF421A520A620A720AED89FE8928
:102A500080819181A281B381481759076A077B075A
:102A60004CF5AF89B88DCD90DC90C20CD31CF80129
:102A7000DE01119680E101900D928A95E1F7005FE9
:102A80001F4FA601BE016F5F7F4FEB89FC898481D8
:102A90009581F0DAA989BA898D919C911197F601F7
:102AA00022813381820F931F8D939C93F4E02F0E2C
:102AB000311CC5CFD701D4968D919C91D5970E949A
:102AC0002033F70197AB86AB892B09F462C0F8017C
:102AD00080819181A281B38124E4289DF001299D08
:102AE000F00D1124E857FB4BAC01BD014D7F21E0F7
:102AF00030E0452B462B472B11F020E030E033A38C
:102B000022A324E4289DF001299DF00D1124E8570B
:102B1000FB4B0197A109B10921E030E00297A10523
:102B2000B10510F020E030E035A324A384E4889DB3
:102B3000F001899DF00D1124CF0182559B4BD801E6
:102B400014964D915D916D917C911797DC014D9399
:102B50005D936D937C931397E857FB4B868D978D10
:102B6000A0A1B1A1B7FF10C0B095A0959095819597
:102B70009F4FAF4FBF4F82AF93AFA4AFB5AF168E8D
:102B8000178E10A211A20AC012AE13AE14AE15AE6B
:102B900005C0C501B40102DA81E001C080E0689699
:102BA0000FB6F894DEBF0FBECDBFDF91CF911F915E
:102BB0000F91FF90EF90DF90CF90BF90AF909F90DC
:102BC0008F907F906F905F904F903F902F900895DF
:102BD000CF92DF92EF92FF92CF93DF931092104546
:102BE00024E4269FF001279FF00D1124E857FB4BAA
:102BF00015A614A620E030E0C12CD12CDF011A96D6
:102C0000C1E0D0E0C416D506D4F4ED91FC91119743
:102C1000E20FF31FE280F3801E141F0454F4E480DB
:102C2000F580F782E682F186E08613861286D183EC
:102C3000C083EFEFCE1ADE0A225F3F4FE3CF24E4DA
:102C4000269FF001279FF00D1124E857FB4B13A698
:102C500012A611AE10AEDF01DE961D921D921D92DE
:102C60001C92139782E090E0938B828BDF91CF913F
:102C7000FF90EF90DF90CF90089524E4269FF0011D
:102C8000279FF00D1124E857FB4B138A128A23CBA0
:102C900024E4269FF001279FF00D1124E857FB4BF9
:102CA0008289938981309105C8F08530910518F0AB
:102CB000059769F008958FEF9FEFDC01828F938F66
:102CC000A48FB58F85E090E0938B828B08958FEF72
:102CD0009FEFDC01828F938FA48FB58F089524E43A
:102CE000249FF001259FF00D1124E857FB4B2EE0A7
:102CF000AC01249FC001259F900D11240284F3850F
:102D0000E02DE80FF91F81E08093104582859385BF
:102D100091878087408551852681378181E090E0C9
:102D20004217530711F080E090E09183808308956B
:102D30002F923F924F925F926F927F928F929F92CB
:102D4000AF92BF92CF92DF92EF92FF920F931F93B9
:102D5000CF93DF93CDB7DEB7C255D1090FB6F89444
:102D6000DEBF0FBECDBF21969FAF8EAF21974BA781
:102D70005CA76DA77EA74801590184E4889D800166
:102D8000899D100D1124F801E857FB4B22853385EE
:102D900027963FAF2EAF279782899389029709F034
:102DA00060C186A597A5A0A9B1A9892B8A2B8B2BD9
:102DB00029F484E090E0938B828B53C184899589B8
:102DC00021964EAD5FAD21974817590709F049C1CB
:102DD00086A997A99AAB89AB1EAE1DAE19AE1AAEE5
:102DE0001BAE1CAE8F01DF019E962996BFAFAEAF22
:102DF0002997F2962B96FFAFEEAF2B979801285CA0
:102E00003F4F2D963FAF2EAF2D97A8014A5D5F4FE4
:102E10002F965FAF4EAF2F97C801829661969FAFF6
:102E20008EAF61971A976396BFAFAEAF639729963F
:102E3000EEADFFAD299780819181A281B38129AD4B
:102E40003AAD4BAD5CAD281739074A075B070CF06C
:102E5000E7C02B96EEADFFAD2B97808191812DAD14
:102E60003EAD280F391F3EAB2DABD90112960D9008
:102E7000BC91A02D2396BFAFAEAF2397B695A79573
:102E8000B695A7952596BFAFAEAF25972D96EEAD1B
:102E9000FFAD2D9780819181892B09F496C02F96E3
:102EA000AEADBFAD2F97CD90DD90ED90FC9029A8F1
:102EB0003AA8F9010190F081E02DF8ABEFA718AE28
:102EC0001FAA8FA998AD2596AEADBFAD25978A17DD
:102ED0009B070CF07AC06196AEADBFAD61978D9146
:102EE0009C91892B69F1EFA5F8A9408051806280FF
:102EF0007380A7019601C301B2010E94063187FDCC
:102F00000BC0A7019601D1016D917D918D919C918E
:102F10000E94132F87FD8CC0A7019601C301B20147
:102F20000E940631181664F4A7019601F101608130
:102F30007181828193810E94132F882309F478C0C4
:102F40006396AEADBFAD63978D919C91892B69F16E
:102F5000EFA5F8A94080518062807380A701960197
:102F6000C301B2010E94132F87FF0BC0A701960176
:102F7000D1016D917D918D919C910E94063187FFC9
:102F800057C0A7019601C301B2010E94132F8111FE
:102F90000CC0A7019601F10160817181828193814A
:102FA0000E94063118160CF443C02FA938AD2F5FCC
:102FB0003F4F38AF2FAB34E0230E311C4FA558A93B
:102FC0004C5F5F4F58AB4FA77CCFEDA9FEA9608146
:102FD000718123964EAD5FAD239789A99AA90E946E
:102FE0004D3425968EAD9FAD2597880F991F880F7C
:102FF000991F29A93AA9280F391F3AAB29AB89ADE6
:103000009AADABADBCAD0196A11DB11D89AF9AAF14
:10301000ABAFBCAFADADBEAD1496BEAFADAF07CFDD
:1030200081E090E0D801D9969C938E93D89719C0EF
:1030300084E4889DF001899DF00D1124E857FB4B35
:10304000868D978DA0A1B1A1892B8A2B8B2B09F09E
:1030500064C284E090E0938B828B86AD97AD93A79A
:1030600082A784E4889DF001899DF00D1124E85722
:10307000FB4B828993898230910571F482AD93ADC7
:10308000A4ADB5AD181619061A061B060CF04CC2F5
:10309000CC24C394D12C05C0049709F045C2C12C9F
:1030A000D12C8EE02196EEADFFAD21978E9F700161
:1030B0008F9FF00C112427962EAD3FAD2797E20E7F
:1030C000F31ED70112964D915C911397411551054E
:1030D00009F42AC216968D919C9117979AA789A7F1
:1030E000FE01319684E1DF011D928A95E9F7898A14
:1030F0009A8AAB8ABC8AC114D10409F457C084E40B
:10310000889DF001899DF00D1124E857FB4BDF01EC
:10311000DE964D905D906D907C9082AD93ADA4ADA8
:10312000B5AD481659066A067B0609F03FC0F7019F
:10313000648175810084F185E02D84819581A6816B
:10314000B7819C018D8B9E8BAF8BB88F285F3F4FD3
:103150003E8B2D8BD70118968D919C911997280F36
:10316000391F19963C932E93189718968D919C9120
:103170001997460F571F841B950B97FD06C0860FA6
:10318000971F19969C938E93189784E4889DF0015D
:10319000899DF00D1124EA53FB4BB1E04B1A510805
:1031A0006108710840825182628273829E012B5EA7
:1031B0003F4FAE01475D5F4F64E170E0C7010E9481
:1031C000650F082F10E00115110509F091C18CE081
:1031D00090E0A0E0B0E08D839E83AF83B8879E012E
:1031E000235E3F4FAE01475D5F4F64E070E0C70173
:1031F0000E94650F082F10E00115110509F078C134
:1032000080E190E0A0E0B0E08D839E83AF83B8873B
:103210004D8D5E8DBE01655D7F4F8F8D98A10E94A3
:103220004D348BA19CA1009761F06D8D7E8DEBE2FA
:10323000F0E0EC0FFD1F6E0F7F1F49A15AA10E9405
:103240004D341DA21EA21FA218A621962EAD3FAD81
:103250002197220F331F38AF2FAB24E4289DC001E4
:10326000299D900D112488579B4BAC014C5F5F4FFB
:103270005AAF49AFDC011896BEAFADAF2DA13EA14C
:103280004FA158A529AB3AAB4BAB5CABE9ADFAAD5E
:1032900080819181A281B381281739074A075B0792
:1032A0000CF0CFC0ADADBEADED91FC9189A99AA94E
:1032B000880F991F880F991FE80FF91FA081B1810E
:1032C0008C91882309F4AFC0833009F4ACC002802C
:1032D000F381E02D2FA938ADE20FF31F408151811A
:1032E00058AB4FA7452B09F49EC089859A85AB85BD
:1032F000BC850196A11DB11D89879A87AB87BC87C4
:103300009E01235E3F4FAE01475D5F4F64E070E07A
:10331000C7010E94650F90E0009709F0E8C08D8119
:103320009E81AF81B8850496A11DB11D8D839E83BA
:10333000AF83B8874D8D5E8DBE016B5D7F4F8F8DE6
:1033400098A10E944D348BA19CA1009761F06D8DD6
:103350007E8DA5E2B0E0AC0FBD1F6A0F7B1F49A1B7
:103360005AA10E944D341EAA1DAA412C512C320193
:10337000EFA5F8A980819181A281B38148165906F1
:103380006A067B060CF04FC0EFA5F8A924803580B3
:103390002DA93EA9220E331ED10112966D917C916A
:1033A00013979E01235E3F4FAE01475D5F4FC701FC
:1033B0000E94650F90E0009709F099C0F1018281A9
:1033C0009381092E000CAA0BBB0B4D815E816F818E
:1033D0007885840F951FA61FB71F8D839E83AF83AB
:1033E000B887608171814D8D5E8D8F8D98A10E940F
:1033F0004D348BA19CA1009759F0D1016D917C9126
:103400002D8D3E8D620F731F49A15AA10E944D342C
:10341000BFEF4B1A5B0A6B0A7B0AEDA9FEA9349633
:10342000FEABEDABA5CF49A85AA86BA87CA8FFEFCF
:103430004F1A5F0A6F0A7F0A4DA25EA26FA278A69A
:103440001DCF89859A85AB85BC85892B8A2B8B2BD3
:1034500009F44EC08AE190E0A0E0B0E089839A834D
:10346000AB83BC8321962EAD3FAD2197C901330FAD
:10347000AA0BBB0B8D879E87AF87B88B4D895E8962
:10348000BE016F5F7F4F8F89988D0E944D348B8D69
:103490009C8D009761F06D897E8941E050E04C0F72
:1034A0005D1F640F751F498D5A8D0E944D3489A58B
:1034B0009AA5D70117969C938E93169711961C92F6
:1034C0001E92CD2889F184E4889DF001899DF00D3C
:1034D0001124EA53FB4B80819181A281B381019633
:1034E000A11DB11D80839183A283B3831DC08C0174
:1034F000CD28D1F4012BC1F084E4889DF001899D91
:10350000F00D1124E857FB4B81E090E095A784A7CC
:1035100085E090E0938B828B07C083E090E0938BF3
:10352000828B81E090E09BCDCE5ADF4F0FB6F894AE
:10353000DEBF0FBECDBFDF91CF911F910F91FF90E6
:10354000EF90DF90CF90BF90AF909F908F907F9043
:103550006F905F904F903F902F900895CF92DF92A1
:10356000EF92FF920F931F936B017C0184E48C9D7B
:10357000F0018D9DF00D1124E857FB4B8289938952
:10358000009709F450C00197B9F482A593A59C0156
:103590002F5F3F4F33A722A7092E000CAA0BBB0BAE
:1035A000028D138D248D358D80179107A207B307E7
:1035B000D1F5C701B6010CDB84E48C9DF0018D9D33
:1035C000F00D1124E857FB4B82899389039759F535
:1035D00082A593A59C012F5F3F4F33A722A7092EF9
:1035E000000CAA0BBB0B468D578D60A171A18417EF
:1035F0009507A607B707BCF086AD97AD93A782A73E
:1036000084E090E0938B828B82AD93ADA4ADB5AD99
:10361000181619061A061B0634F4EE5BFF4F81E0FC
:1036200090E0918380831F910F91FF90EF90DF9046
:10363000CF90089524E4269FF001279FF00D1124D8
:10364000E857FB4B828993890497B1F482A593A52F
:10365000019693A782A7092E000CAA0BBB0B4689E3
:103660005789608D718D84179507A607B70721F4D8
:1036700085E090E0938B828B08952F923F924F923A
:103680005F926F927F928F929F92AF92BF92CF92F2
:10369000DF92EF92FF920F931F93CF93DF93CDB7FB
:1036A000DEB72E970FB6F894DEBF0FBECDBF4983AD
:1036B0005A836B837C834901442E552E24E4249D38
:1036C000F001259DF00D1124E857FB4B228833882B
:1036D000910124503109158614862230310508F0F5
:1036E000DDC0DC0111961C921E9213961C921E9254
:1036F0001297A12CB12C60E070E09F01265F3F4F34
:1037000038872F837F013CE0E30EF11CDF015096E8
:10371000BA87A9879F01225F3F4F3C872B87681597
:1037200079050CF06FC0EF81F885A081B1819D0112
:103730002A0D3B1D3E872D87D9012D913C91119774
:10374000232B09F059C018960D911C9119971296C8
:10375000ED91FC911397FE83ED8316962D913C918C
:103760001797D7014D915C91DA01E3E0AA0FBB1FD7
:10377000EA95E1F7E985FA85C080D180FD01EC0D7D
:10378000FD1D440F551FAB85BC85CD90DC904C0DC5
:103790005D1DDA016D937C93D7014D915C9111977A
:1037A0004F5F5F4F4D935C9313830283AD85BE855E
:1037B0001B963C932E931A970217130748F4201B6D
:1037C000310B31832083158214821782168214C034
:1037D000AD85BE851496CD90DC9015974D815E81A8
:1037E0004C0D5D1D401B510B518340832C193D092D
:1037F00035832483D782C6826F5F7F4FBEE0AB0ED6
:10380000B11C8DCF24E4249D8001259D100D112431
:1038100008571B4BF80124853585DC0111963C9334
:103820002E934089518913965C934E931297468547
:10383000578515965C934E931497232BA1F5B5E00D
:103840002B16310481F510921045828D938DA48D35
:10385000B58DAE014F5F5F4F64E070E08F3F9F4FCB
:10386000AF4FBF4F59F480E290E00E94AF256981CD
:103870007A818B819C81A40100DA15C08FE190E0F0
:103880000E94AF25D8019B961C921E929A9781E0C8
:1038900090E053969C938E93529705C0FC01118241
:1038A0001082138212822E960FB6F894DEBF0FBEDE
:1038B000CDBFDF91CF911F910F91FF90EF90DF90DF
:1038C000CF90BF90AF909F908F907F906F905F90C0
:1038D0004F903F902F900895EF92FF920F931F9378
:1038E000CF93DF937C018B01EA010E943226811184
:1038F00021C080912A4390912B43049711F183E0DA
:1039000090E090932B4380932A431BC098819111A0
:10391000F0CF28ED38EB45E050E060E070E0CB01FF
:103920000E94BC28AE01B801C7010E94CA28C80184
:103930000E9495288091114590911245892B31F371
:10394000D8CFDF91CF911F910F91FF90EF90089505
:10395000CF93DF9320912A4330912B4324303105BC
:1039600041F0EB010E94CA28CE01DF91CF910C9467
:103970009528DF91CF9108950C94DD2C0C94D22CD6
:103980000C94C02C0C94A5280C94642C089560E031
:1039900070E080E090E00C940D260895AF92BF9205
:1039A000CF92DF92EF92FF920F931F93CF93DF930B
:1039B00000D0CDB7DEB75C0169017A018B0180E0F0
:1039C00090E0C114D104E104F104F1F0C114D10478
:1039D00021E0E206F10410F4A60102C04FEF5FEF10
:1039E0009E012F5F3F4FB801C5010E947F2D8F3F81
:1039F0002FEF920749F029813A81C21AD30AE108D0
:103A0000F108020F131FDDCF0F900F90DF91CF91C0
:103A10001F910F91FF90EF90DF90CF90BF90AF90EC
:103A20000895089508951F920F920FB60F921124D2
:103A30002F933F934F935F936F937F938F939F93B6
:103A4000AF93BF93EF93FF93E0912C43F0912D43FD
:103A50000995FF91EF91BF91AF919F918F917F91C8
:103A60006F915F914F913F912F910F900FBE0F90EB
:103A70001F9018951F920F920FB60F9211242F933B
:103A80003F934F935F936F937F938F939F93AF93E6
:103A9000BF93EF93FF93E0912E43F0912F4309954D
:103AA000FF91EF91BF91AF919F918F917F916F9116
:103AB0005F914F913F912F910F900FBE0F901F90EC
:103AC00018951F920F920FB60F9211242F933F93C8
:103AD0008F939F93AF93BF93809114459091154519
:103AE000A0911645B09117453091134523E0230F5F
:103AF0002D3720F40196A11DB11D05C026E8230F26
:103B00000296A11DB11D20931345809314459093F7
:103B10001545A0931645B09317458091184590918F
:103B20001945A0911A45B0911B450196A11DB11DE3
:103B30008093184590931945A0931A45B0931B455F
:103B4000BF91AF919F918F913F912F910F900FBE99
:103B50000F901F9018953FB7F89480911845909159
:103B60001945A0911A45B0911B4526B5A89B05C0E3
:103B70002F3F19F00196A11DB11D3FBFBA2FA92FEC
:103B8000982F8827820F911DA11DB11DBC01CD0169
:103B900042E0660F771F881F991F4A95D1F7089555
:103BA0008F929F92AF92BF92CF92DF92EF92FF924D
:103BB0006B017C01D0DF4B015C01C114D104E10435
:103BC000F104F1F02EDFC7DFDC01CB018819990980
:103BD000AA09BB09883E9340A105B10570F321E015
:103BE000C21AD108E108F10888EE880E83E0981E19
:103BF000A11CB11CC114D104E104F10421F7DDCFF3
:103C0000FF90EF90DF90CF90BF90AF909F908F90FC
:103C10000895789484B5826084BD84B5816084BD44
:103C200085B5826085BD85B5816085BDEEE6F0E035
:103C3000808181608083E1E8F0E010828081826091
:103C40008083808181608083E0E8F0E08081816012
:103C50008083E1EBF0E0808184608083E0EBF0E042
:103C6000808181608083EAE7F0E0808184608083E6
:103C70008081826080838081816080838081806890
:103C800080831092C10008958E3008F08E508770A6
:103C90002091304390E4299F90011124822B80933E
:103CA0007C0080917A00806480937A0080917A0011
:103CB00086FDFCCF809178002091790090E0922BD6
:103CC0000895833081F028F4813099F08230A1F09A
:103CD00008958730A9F08830B9F08430D1F480910C
:103CE00080008F7D03C0809180008F77809380005B
:103CF000089584B58F7702C084B58F7D84BD089503
:103D00008091B0008F7703C08091B0008F7D809349
:103D1000B0000895CF93DF9390E0FC01E25EFE4F88
:103D20002491FC01EE5CFE4F8491882361F190E0C8
:103D3000880F991FFC01E05BFE4FC591D491FC01F7
:103D4000EA5BFE4FA591B491611109C09FB7F89449
:103D50008881209582238883EC912E230BC06230CA
:103D600061F49FB7F8943881822F809583238883EC
:103D7000EC912E2B2C939FBF06C08FB7F894E8814F
:103D80002E2B28838FBFDF91CF9108951F93CF9360
:103D9000DF93282F30E0F901E65FFE4F8491F901AF
:103DA000E25EFE4FD491F901EE5CFE4FC491CC234C
:103DB000C1F0162F811185DFEC2FF0E0EE0FFF1F11
:103DC000EA5BFE4FA591B4918FB7F894111105C02D
:103DD0009C91ED2FE095E92302C0EC91ED2BEC9343
:103DE0008FBFDF91CF911F910895FC01918D228D9E
:103DF000892F90E0805C9F4F821B91098F739927D8
:103E00000895FC01918D828D981731F0828DE80F15
:103E1000F11D858D90E008958FEF9FEF0895FC01CF
:103E2000918D828D981761F0828DDF01A80FB11DF1
:103E30005D968C91928D9F5F9F73928F90E0089515
:103E40008FEF9FEF0895FC01848DDF01A80FB11D56
:103E5000A35ABF4F2C91848D90E001968F739927C0
:103E6000848FA689B7892C93A089B1898C918064AD
:103E70008C93938D848D981306C00288F389E02D6E
:103E800080818F7D80830895CF93DF93EC01888DAF
:103E90008823C1F0EA89FB89808185FD05C0A88956
:103EA000B9898C9186FD0EC00FB607FCF5CF8081D5
:103EB00085FFF2CFA889B9898C9185FFEDCFCE011E
:103EC000C2DFE8CFDF91CF910895EF92FF920F9379
:103ED0001F93CF93DF93EC0181E0888F9B8D8C8DB6
:103EE000981305C0E889F989808185FD23C0F62EE5
:103EF0000B8D10E00F5F1F4F0F731127E02E8C8D7D
:103F0000E8120BC00FB607FCFACFE889F989808167
:103F100085FFF5CFCE0197DFF2CF8B8DFE01E80F45
:103F2000F11DE35AFF4FF0820B8FEA89FB898081F4
:103F3000806207C0EE89FF896083E889F989808102
:103F40008064808381E090E0DF91CF911F910F9199
:103F5000FF90EF900895CF92DF92EF92FF921F9320
:103F6000CF93DF93EC016A017B01122FE889F98975
:103F700082E080834115514E61057105B1F060E02A
:103F800079E08DE390E0A70196010E94CA32DA0140
:103F9000C9010197A109B109B695A795979587958C
:103FA000AC01411580E15807A8F0E889F989108231
:103FB00060E874E88EE190E0A70196010E94CA32A1
:103FC000BA01A901415051096109710976956795B6
:103FD00057954795EC85FD855083EE85FF85408399
:103FE000188EEC89FD891083EA89FB8980818061C4
:103FF0008083EA89FB89808188608083EA89FB89E4
:10400000808180688083EA89FB8980818F7D8083BD
:10401000DF91CF911F91FF90EF90DF90CF900895A7
:104020001F920F920FB60F9211242F938F939F938D
:10403000EF93FF93E0912C45F0912D458081E09125
:104040003245F091334582FD12C090818091354513
:104050008F5F8F7320913645821751F0E09135457F
:10406000F0E0E45EFA4B958F8093354501C0808186
:10407000FF91EF919F918F912F910F900FBE0F9015
:104080001F9018951F920F920FB60F9211242F9325
:104090003F934F935F936F937F938F939F93AF93D0
:1040A000BF93EF93FF938CE195E4CDDEFF91EF9109
:1040B000BF91AF919F918F917F916F915F914F9140
:1040C0003F912F910F900FBE0F901F901895ECE12C
:1040D000F5E41382128288EE93E0A0E0B0E08483DE
:1040E0009583A683B7838EEF93E49183808385ECD9
:1040F00090E09587848784EC90E09787868780ECB2
:1041000090E0918B808B81EC90E0938B828B82ECA2
:1041100090E0958B848B86EC90E0978B868B118E4C
:10412000128E138E148E08958F929F92AF92BF922B
:10413000CF92DF92EF92FF920F931F93CF93DF9373
:104140007C018B016C0182E0C80ED11C4701E5E0C7
:104150008E0E911CC0E0D0E0F60161916F014AE043
:1041600050E0C801C6D05C016EE2C80167D08A0D7C
:104170009B1DC80FD91FC814D90471F74AE050E03D
:10418000F7016581C801B5D08C0F9D1FDF91CF91DC
:104190001F910F91FF90EF90DF90CF90BF90AF9065
:1041A0009F908F900895E9EBF5E48EE094E491837D
:1041B000808312821382148215820895CF92DF9237
:1041C000EF92FF920F931F93CF93DF936C017A01CD
:1041D0008B01C0E0D0E0CE15DF0589F0D8016D91EC
:1041E0008D01D601ED91FC910190F081E02DC60189
:1041F0000995892B11F47E0102C02196ECCFC701ED
:10420000DF91CF911F910F91FF90EF90DF90CF90B2
:1042100008956115710579F0FB0101900020E9F71F
:104220003197AF01461B570BDC01ED91FC910280E9
:10423000F381E02D099480E090E00895DC01ED9198
:10424000FC910190F081E02D09944F925F926F9262
:104250007F92EF92FF920F931F93CF93DF93CDB78F
:10426000DEB7A1970FB6F894DEBF0FBECDBF7C01BD
:10427000FA01CB0119A2223008F42AE08E010F5D69
:104280001F4F422E512C612C712CBF01A3019201B2
:104290000E94CA32F901CA01015011096A3014F4AE
:1042A000605D01C0695CD8016C93232B242B252B06
:1042B00061F7B801C701ADDFA1960FB6F894DEBF74
:1042C0000FBECDBFDF91CF911F910F91FF90EF9067
:1042D0007F906F905F904F9008952115310541F4C4
:1042E000DC01ED91FC910190F081E02D642F0994A7
:1042F000ACCF9A01462F50E060E070E0EECF813005
:1043000039F018F0823051F0089510926E0008953F
:1043100080916F008D7F80936F0008958091700071
:104320008D7F8093700081E08093B0008091B10018
:10433000887F84608093B1001092B3000895CF937A
:10434000C82F809131438C1307C0EAE5F1E0E49176
:104350008FEF8093314301C0EFEF8E2FD0DF60E00D
:104360008C2FCF9113CD1F920F920FB60F92112465
:104370002F933F934F935F936F937F938F939F936D
:10438000AF93BF93EF93FF938091C2459091C34544
:10439000A091C445B091C545892B8A2B8B2B51F137
:1043A0008091BF45E091C045F091C145908189273A
:1043B00080838091C2459091C345A091C445B0913E
:1043C000C545181619061A061B06BCF48091C2458D
:1043D0009091C345A091C445B091C5450197A109ED
:1043E000B1098093C2459093C345A093C445B0934F
:1043F000C54503C080913143A2DFFF91EF91BF918A
:10440000AF919F918F917F916F915F914F913F916C
:104410002F910F900FBE0F901F90189540E855E216
:1044200060E070E080E090E000C026E08CE195E480
:1044300092CD1F920F920FB60F9211242F933F939C
:104440004F935F936F937F938F939F93AF93BF939C
:10445000EF93FF938EE19BEF909385008093840010
:104460000E94B92DFF91EF91BF91AF919F918F91D4
:104470007F916F915F914F913F912F910F900FBE60
:104480000F901F9018958EE19BEF9093850080937D
:104490008400AFE6B0E08C918E7F8C93E0E8F0E092
:1044A00080818C7F8083E1E8F0E08081877E80835B
:1044B00080818360808380818B7F80838C91816009
:1044C0008C930895EFE6F0E080818E7F80830895DD
:1044D00081E008956F927F928F929F92AF92BF92E8
:1044E000CF92DF92EF92FF920F931F93CF93DF93C0
:1044F0005C017B014A0101E010E00E151F0564F527
:1045000068018FEFC81AD80AE801CC0FDD1FC80D6B
:10451000D91D6880798061147104E1F060E174E470
:10452000C3010E945D34892B19F41982188212C0CC
:1045300063E174E4C3010E945D34892B59F4CE1405
:10454000DF0441F06801E2E0CE0ED11C198218822E
:104550001B821A828601D1CF81E0F5018083B401EC
:10456000C7010E940A2DF5019283818380E090E0CB
:10457000DF91CF911F910F91FF90EF90DF90CF903F
:10458000BF90AF909F908F907F906F90089586EC32
:1045900095E4089580E008950F931F93CF93DF93E0
:1045A0008B01BA01E901198218829801012E000CD1
:1045B000440B550BFC0181819281F0D9019621F0C9
:1045C0001983088380E001C081E0DF91CF911F91C2
:1045D0000F9108950F931F93CF93DF9300D0CDB722
:1045E000DEB7FB018A01B9019E012F5F3F4FAF018A
:1045F000FC01818192810E94212D019639F08981EF
:104600009A81F8019183808380E001C081E00F905E
:104610000F90DF91CF911F910F910895FC01808140
:1046200008950895089581E0FB01808380E0089556
:1046300008951092F0450895FC01818192810C94B7
:10464000FF2CCF93DF93CDB7DEB72A970FB6F89440
:10465000DEBF0FBECDBFAC01CB0160E070E049838F
:104660005A836B837C83092E000CAA0BBB0B8D83B2
:104670009E83AF83B8879E01275F3F4FAE014F5F98
:104680005F4F68E070E08091DF459091E04584DF06
:10469000811108C081E029853A852830310519F457
:1046A00080E001C081E02A960FB6F894DEBF0FBE0D
:1046B000CDBFDF91CF9108950F931F93CF93DF93D9
:1046C00000D0CDB7DEB78B019E012F5F3F4FAC010D
:1046D0008091DF459091E0455FDF811108C081E066
:1046E00029813A812017310719F480E001C081E067
:1046F0000F900F90DF91CF911F910F910895CF935D
:10470000DF93EC011092E3451092E2451092EF45E1
:104710001092EE45AC0160E070E0CB010E943D16C6
:10472000AE0161E070E080E090E00E943D16809173
:10473000DF459091E045DF91CF917ACF4F925F9224
:104740006F927F928F929F92AF92BF92CF92DF92A1
:10475000EF92FF920F931F93CF93DF9300D0CDB7CB
:10476000DEB79C016C0197FF03C087E0C80ED11C27
:1047700043E0D594C7944A95E1F7C90168E070E039
:104780000E94B7327C0189010E5F1F4F8091DD4589
:104790009091DE45801791070CF0DCC08091DB45DD
:1047A0009091DC45009731F00E94B5331092DE45C0
:1047B0001092DD45C8010E9420339093DC45809320
:1047C000DB45892B29F01093DE450093DD45C2C0FF
:1047D000A12CB12CAC14BD040CF05EC0412C512CAA
:1047E000320100E010E098012C513A4BAE014F5FCE
:1047F0005F4F61E070E08091DF459091E045EADE37
:10480000811198C189819A812FEF421A520A620A56
:10481000720A20E942162FE5520621E06206710471
:104820003CF06091EE457091EF458DEE90E02DC02B
:10483000080F191F0A30110551F549E050E060E0FA
:1048400070E084EE95E40E94AB2D6091EE4570918E
:10485000EF458823C1F08091EC4590E06817790717
:1048600009F0B8CF8EEE90E0ECDE8091EE459091AD
:10487000EF45019699279093EF458093EE458FEF92
:10488000A81AB80AA7CF8FEE90E0DBDEA7CF0A30D8
:1048900011050CF4A8CF9ECFEF2809F44BC1C12C11
:1048A000D12C760100E010E098012C513A4BAE017A
:1048B0004F5F5F4F61E070E08091DF459091E04590
:1048C00089DE811137C189819A812FEFC21AD20AFC
:1048D000E20AF20A20E9C2162FE5D20621E0E2063A
:1048E000F1043CF06091EE457091EF458DEE90E063
:1048F0002AC0080F191F0A30110539F549E050E0A8
:1049000060E070E084EE95E40E94AB2D6091EE458E
:104910007091EF458823A9F08091EC4590E06817ED
:10492000790709F007C18EEE90E08BDE8091EE45AD
:104930009091EF45019699279093EF458093EE452E
:10494000F9C08FEE90E07DDEAACF0A3011050CF49D
:10495000ABCFF0C000E010E00C151D050CF077C0E7
:10496000412C512C3201A12CB12C480193E0880C30
:10497000991C9A95E1F72091DB453091DC45C40103
:104980008A0D9B1D280F391FAE014F5F5F4F61E0FD
:1049900070E08091DF459091E0451CDE8111CAC036
:1049A00089819A812FEF421A520A620A720A20E91B
:1049B00042162FE5520621E0620671043CF0609138
:1049C000EE457091EF458DEE90E034C0A80EB91E13
:1049D0008AE0A816B104A9F549E050E0B40180913D
:1049E000DB459091DC450E94AB2D6091EE457091C6
:1049F000EF458823E9F08091DB459091DC45FC018F
:104A0000E80DF91D808590E06817790709F0A4CFBB
:104A10008EEE90E016DE8091EE459091EF45019686
:104A200099279093EF458093EE450F5F1F4F94CFEA
:104A30008FEE90E006DE412C512C3201A12CB12CDE
:104A40009ACF2AE0A216B1040CF495CF85CFE114D9
:104A5000F10409F46AC0680183E0CC0CDD1C8A957E
:104A6000E1F7812C912C540100E010E098012C51C9
:104A70003A4BAE014F5F5F4F61E070E08091DF45E0
:104A80009091E045A7DD811155C089819A812FEF72
:104A9000821A920AA20AB20A20E982162FE5920629
:104AA00021E0A206B1043CF06091EE457091EF4523
:104AB0008DEE90E034C0080F191F0A30110589F5FA
:104AC00049E050E060E070E084EE95E40E94AB2D98
:104AD0006091EE457091EF458823F9F08091EC45A7
:104AE00090E06817790709F58EEE90E0AADD8091D5
:104AF000DB459091DC45A70164EE75E48C0D9D1DAE
:104B00000E944D348091EE459091EF450196992792
:104B10009093EF458093EE4508C08FEE90E091DDD5
:104B2000A0CF0A3011050CF4A1CF8091DB45909104
:104B3000DC4502C080E090E00F900F90DF91CF91B4
:104B40001F910F91FF90EF90DF90CF90BF90AF90AB
:104B50009F908F907F906F905F904F900895CF922D
:104B6000DF92EF92FF920F931F93CF93DF931F92E9
:104B7000CDB7DEB76C017B018A01452B31F0AB016B
:104B800060E070E0C801E3D78983B701C60159DD51
:104B900081110DC00115110551F0B701C8018CDD5F
:104BA000811105C061E070E0CE01019685DD0F90B6
:104BB000DF91CF911F910F91FF90EF90DF90CF90F9
:104BC0000895CF92DF92EF92FF92CF93DF93CDB70C
:104BD000DEB728970FB6F894DEBF0FBECDBF6B01CE
:104BE000E12CF12CC982DA82EB82FC822D833E8398
:104BF0004F835887AE014F5F5F4F68E070E0AFDFD3
:104C000028960FB6F894DEBF0FBECDBFDF91CF91CF
:104C1000FF90EF90DF90CF9008950F931F93CF9365
:104C2000DF93EC018B01B3DC9093E0458093DF458B
:104C3000009739F0A801BE014DDCEC01892B19F475
:104C40000BC0CFE1D4E48091DF459091E045E9DCF1
:104C50001092E0451092DF45CE01DF91CF911F9178
:104C60000F9108958091DF459091E045D7CC2F9228
:104C70003F924F925F926F927F928F929F92AF92EC
:104C8000BF92CF92DF92EF92FF920F931F93CF9339
:104C9000DF93CDB7DEB769970FB6F894DEBF0FBECE
:104CA000CDBF2091E345222309F426C25D8B4C8BB6
:104CB000688B798B8A8B9B8B9A01AB01BC01CE01EF
:104CC00001960E943D1B10E038E0232E312C898193
:104CD0009A81181619060CF00AC21F861E861D86B8
:104CE0001C8689819A81AC85BD85A817B9070CF00F
:104CF000F3C1EB81FC812E853F85E20FF31F2081FC
:104D000031813093DA452093D94584819581909300
:104D1000D8458093D745428153815093D6454093DF
:104D2000D545468157815093D4454093D345820F52
:104D3000931F9C01990F440B550B2E8B3F8B488F73
:104D4000598FC12CD12C76012E893F89488D598DE0
:104D5000C216D306E406F50608F0A2C11F826091D0
:104D6000D9457091DA458B01072E000C220B330BCD
:104D7000D701C6010496A11DB11D80179107A20796
:104D8000B30728F4E091D545F091D6450AC0E4E098
:104D9000F0E0E61BF70BEC0DFD1D8091D3459091E3
:104DA000D445E80FF91F4080512C612C712CD7019C
:104DB000C6010596A11DB11D80179107A207B30773
:104DC00028F4E091D545F091D6450AC0E5E0F0E041
:104DD000E61BF70BEC0DFD1D8091D3459091D4455A
:104DE000E80FF91F8081582AD701C6010696A11D38
:104DF000B11D80179107A207B30728F4E091D545AC
:104E0000F091D6450AC0E6E0F0E0E61BF70BEC0DAA
:104E1000FD1D8091D3459091D445E80FF91F808105
:104E2000682AD701C6010796A11DB11D80179107F9
:104E3000A207B30728F4E091D545F091D6450AC002
:104E4000E7E0F0E0E61BF70BEC0DFD1D8091D3458C
:104E50009091D445E80FF91F8081782A46015701C7
:104E600048E0840E911CA11CB11C081519052A05E7
:104E70003B0508F4B4C0C016D106E206F30638F4C8
:104E80008091D5459091D6458C0D9D1D09C0C601D8
:104E9000861B970B2091D3453091D445820F931FE9
:104EA00068E070E009DCE091D945F091DA459F01B6
:104EB0000F2E000C440B550BD301C201880D991D18
:104EC000AA1DBB1D281739074A075B07C8F08216C1
:104ED0009306A406B50638F42091D5453091D64501
:104EE000C601089609C0C1018E1B9F0B8C0D9D1D2C
:104EF0002091D3453091D445820F931FB20199C0C0
:104F00008601BF01685071096C197D0982169306EC
:104F1000A406B50638F42091D5453091D645C60192
:104F2000089609C0C1018E1B9F0B8C0D9D1D209101
:104F3000D3453091D445820F931FBEDB8091D94574
:104F40009091DA45B101681B790B600F711F640DF8
:104F5000751D8091D3459091D445AEDB8091D945A4
:104F60009091DA45AC0148505109FA01E01BF10B70
:104F7000AC01092E000C660B770B84169506A6066D
:104F8000B70638F42091D5453091D645C60108962C
:104F90000AC09101281B390BC9018C0D9D1D209160
:104FA000D3453091D445820F931FAF0160E070E08C
:104FB000CED58F832091D9453091DA45A101421B8E
:104FC000530B9A01200F311F240D351D40E050E096
:104FD000682F8091D3459091D445A5D550C0C01677
:104FE000D106E206F306C8F46C197D098091D54517
:104FF0009091D6458C0D9D1D5FDB8091D945909198
:10500000DA45B101681B790B6C0D7D1D640D751DB2
:105010008091D3459091D4450CC0C601861B970B57
:105020002091D3453091D445B201685F7F4F820F04
:10503000931F42DB8091D9459091DA45AC01092E4E
:10504000000C660B770B84169506A606B70638F497
:105050002091D5453091D645C60108960AC0D101A8
:10506000A81BB90BCD018C0D9D1D2091D34530910E
:10507000D445820F931FA20160E070E068D58F8352
:1050800061E070E0CE01079617DB182FB8E04B0EF9
:10509000511C611C711CC40CD51CE61CF71C54CEA1
:1050A0008C859D85880F991FED81FE81E80FF91F82
:1050B000488959896A897B89808191810E946F160C
:1050C0004C855D854F5F5F4F5D874C878E859F85E3
:1050D00008969F878E8705CE2C893D8948895989F6
:1050E0006A897B89CE0101960E943D1BF0CD112378
:1050F00019F08C899D8903DB69960FB6F894DEBFA1
:105100000FBECDBFDF91CF911F910F91FF90EF9018
:10511000DF90CF90BF90AF909F908F907F906F90D7
:105120005F904F903F902F900895CF93DF93EC01C5
:10513000AC0160E070E0CB019ADDAE0161E070E0AF
:1051400080E090E0DF91CF9192CDCF938091DF45C9
:105150009091E0451FDAC82F81110BC060E070E02C
:10516000CB010E943F1161E070E080E090E00E947E
:105170003F118C2FCF9108950F931F9389019A01AE
:10518000AB01BC018091DF459091E0454BDA1F9166
:105190000F9108953F924F925F926F927F928F92FC
:1051A0009F92AF92BF92CF92DF92EF92FF920F93B6
:1051B0001F93CF93DF93CDB7DEB767970FB6F89401
:1051C000DEBF0FBECDBF6C017B015A018091E3456C
:1051D000882331F08091E345882309F45DC30AC038
:1051E00063EE75E48091DF459091E0451CDA811112
:1051F00053C3F0CF8091E2451A821982882309F4C3
:105200006AC0E0E94E2EEFE55E2E66246394712CB1
:1052100000E010E0980127533A4BAE014F5F5F4F1B
:1052200061E070E08091DF459091E045D3D9982E00
:1052300081114DC089819A81080F191F011511052F
:1052400009F445C081E0481A51086108710839F431
:105250006091EE457091EF458DEE90E030C00A30E0
:10526000110589F549E050E060E070E089EC95E4D3
:1052700072D46091EE457091EF458823F1F08091F2
:10528000D14590E068177907D9F48EEE90E0D9D92E
:1052900088E0E9ECF5E4DE01199601900D928A951B
:1052A000E1F72091EE453091EF452F5F3F4F3327D7
:1052B0003093EF452093EE450AC08FEE90E0C1D9C0
:1052C0001A82198204C00A3011050CF4A3CF81E0C0
:1052D00029813A8124C000E010E078E0672E712C2B
:1052E00029E030E02C0F3D1F200F311FAE014F5F32
:1052F0005F4FB301601B710B8091DF459091E045DA
:1053000069D9982E29813A81811108C0020F131F93
:105310000115110519F00830110514F381E012167A
:1053200013060CF080E09110B4C2882309F4B4C2D3
:105330008091E245811104C019861A861B861C865D
:1053400089859A85AB85BC858031910508F0A4C21A
:10535000FC01EC5CFF4F0C94EC32D6011696ED91FB
:10536000FC91179780819181A281B38189839A836F
:10537000AB83BC83AE014F5F5F4F64E070E085E1BB
:1053800090E07FC18D859E85D9D9009731F42FEFAC
:105390003FEFA90161E070E00EC0FC0180809180C8
:1053A000A280B380A701C501B4010E94E815A50140
:1053B000940160E070E08DE190E069C28D859E858A
:1053C000BDD9009721F42FEF3FEFA90110C0DC01F8
:1053D0008D909D90AD90BD90AD0195018401B70178
:1053E000C6010E948412A5019401882319F061E08E
:1053F00070E002C060E070E08BE190E048C28D8513
:105400009E859CD9009721F42FEF3FEFA9010FC093
:10541000FC0181909190A190B190BF01A5019401F0
:10542000C6010E948D14A5019401882319F061E042
:1054300070E002C060E070E08CE190E028C2D6012C
:105440001496ED91FC91159700811181F8018280ED
:105450009380A080B18060E1462E512C612C712C8C
:1054600049825A826B827C8288E090E0A0E0B0E0C2
:105470008D839E83AF83B8879E012F5E3F4FAE0121
:105480004F5F5F4F68E070E08091DF459091E045AD
:1054900083D8882319F000E010E0BBC089899A897D
:1054A0000897C9F7D801ED90FC90B8E0EB0EF11C1D
:1054B000EE0CFF1CEE0CFF1CC7010E9420338C0178
:1054C000892B49F349825A826B827C82C7010F2C57
:1054D000000CAA0BBB0B8D839E83AF83B8879E0104
:1054E0002F5E3F4FAE014F5F5F4F68E070E08091ED
:1054F000DF459091E04550D881118BC089899A8908
:10550000089709F086C0D6011296ED91FC91139789
:105510004081518162817381D8014D935D936D9378
:105520007C931397448155816681778114964D93BE
:105530005D936D937C931797408551856285738544
:1055400018964D935D936D937C931B9784859585F9
:10555000A685B785F80184879587A687B787108ABF
:10556000118A128A138A84E090E0A0E0B0E0848B74
:10557000958BA68BB78B80912A4390912B43A0E00B
:10558000B0E0808F918FA28FB38FC5010B2C000CE0
:10559000AA0BBB0B848F958FA68FB78FF401D80110
:1055A000909680E090E08A159B0554F441915191CA
:1055B00060E070E04D935D936D937D930196F3CF22
:1055C0009E012F5E3F4FA801B7018091DF4590916A
:1055D000E0450E94CC2281111CC089899A898E15D0
:1055E0009F05B9F4A70160E070E0C801B0D28B8BD1
:1055F0009E012F5E3F4FAE014D5E5F4F61E070E058
:105600008091DF459091E0450E94CC2281E080931B
:10561000E245C80167960FB6F894DEBF0FBECDBF56
:10562000DF91CF911F910F91FF90EF90DF90CF907E
:10563000BF90AF909F908F907F906F905F904F90B2
:105640003F900C94B5338D859E85AF85B8890097C2
:10565000A105B10521F481E08093E1451DC16ED81B
:10566000009789F481E090E0A0E0B0E089839A831C
:10567000AB83BC83AE014F5F5F4F64E070E082E1BB
:1056800090E06DDA09C1BC01C6010E949110198237
:105690001A821B821C82AE014F5F5F4F64E070E094
:1056A00082E190E05CDA8111F7C0D5CFD601149683
:1056B000ED91FC9115970190F081E02D0085118509
:1056C0008FEF89830115110509F472C0D8016D901F
:1056D0007C90A280B38020E030E060E070E080E069
:1056E00090E0861597050CF5F801A281B381A20F11
:1056F000B31F1296ED91FC911397EE0FFF1FEA0D69
:10570000FB1D0190F081E02D16960D90BC91A02D0F
:10571000EA9FA001EB9F500DFA9F500D1124640FDA
:10572000751F0196285F3F4FDCCF83E190E00E9418
:1057300021238111B1C0C12CD12CE12CF12CE61414
:10574000F7047CF5D8011296ED91FC911397EC0DBE
:10575000FD1D80809180A281B381AA0FBB1FAA0D7D
:10576000BB1D2D913C9186819781289F2001299F07
:10577000500C389F500C1124B201C4010E945C23CC
:10578000382E920140E050E06981C401CCD1898378
:10579000B8E0CB0ED11C31107FC0EFEFEE1AFE0A3D
:1057A000CECF61E070E0CE0101960E945C2374C010
:1057B00060E070E083E190E00E9421236DC040E052
:1057C00050E060E070E081E190E0C9D9811164C0EF
:1057D000812C912C5401C501B4010E946B1280915F
:1057E0001045882321F0A701C501B40140DAA701C3
:1057F000C501B4010E946B118A9489288A288B28DC
:1058000029F0812C912C54018394E5CF1092E3452B
:105810001092E2451092EF451092EE458091DF45DF
:105820009091E0450E94192337C081E090E0909369
:1058300012458093114540E050E060E070E086E161
:1058400090E01FCF81E0D5018C9326C08D859E8589
:105850000E949E23009731F42FEF3FEFA90161E0F2
:1058600070E013C0FC012081318142815381CA0163
:10587000B9012C8B3D8B4E8B5F8B0E9448162C8977
:105880003D894E895F8960E070E08EE190E099D9B2
:1058900003C0C7010E947F2367960FB6F894DEBF4E
:1058A0000FBECDBFDF91CF911F910F91FF90EF9071
:1058B000DF90CF90BF90AF909F908F907F906F9030
:1058C0005F904F903F900895CF92DF92EF92FF92BA
:1058D000CF93DF93EC01C12CD12C7601C701B60127
:1058E0000E946B12AE01C701B601C1D9AE01C7015A
:1058F000B6010E946B118091DB459091DC450097C9
:1059000029F033D71092DC451092DB45CA94CD289C
:10591000CE28CF2829F0C12CD12C7601C394DECF1C
:105920008091E245882359F040E050E060E070E06B
:1059300084E190E014D9F82E1092E24501C0F12CD8
:105940008091E345882341F01092E34581E090E0A7
:1059500090932B4380932A438091DF459091E045BB
:105960000E941C238091DF459091E0450E94112305
:105970008F2DDF91CF91FF90EF90DF90CF90089522
:10598000CF93DF93EC01AC0160E070E0CB010E94AB
:10599000AE1AAE0161E070E080E090E0DF91CF915F
:1059A0000C94AE1A60E070E0CB010E941A1B61E01B
:1059B00070E080E090E00C941A1BCF92DF92EF929F
:1059C000FF920F931F93CF93DF93EC016A017B014A
:1059D00000E010E098010E94981601E010E020E03D
:1059E00030E0B701A601CE010E949816DF91CF9159
:1059F0001F910F91FF90EF90DF90CF9008950E943C
:105A0000622268EE73E080E090E00E94D01D80E0AA
:105A100090E0089526E040E050E16EE070E08CE117
:105A200095E40E94AB1F8CE195E40E94F51E892B42
:105A300029F08CE195E40E940F1FF5CF80E090E003
:105A40000895AF92BF92CF92DF92EF92FF920F93A1
:105A50001F93CF93DF9300D0CDB7DEB77A018901D2
:105A6000F901118210828CE195E469837A830E94A6
:105A7000F51E69817A81892B99F15B01DD24D3942C
:105A800085E6C82E8091F045811124C08CE195E413
:105A90000E940F1F85369105A9F7D092F045F501B8
:105AA000C1925F01F8018081918101969183808389
:105AB000E9CF8CE195E40E940F1F8F3FFFEF9F0716
:105AC00049F0F50181935F01F80180819181019690
:105AD00091838083F801808191818E159F0548F321
