:1000000059C0000085C00000AAC0000078C00000F0
:1000100076C0000074C0000072C000005FC4000021
:100020006EC000006CC000006AC0000068C0000024
:1000300066C00000B9C4000062C0000060C00000DB
:10004000B5C000005CC00000A7C20000D7C200001D
:1000500056C0000054C0000052C0000050C0000054
:100060004EC000004CC0000000000008000201006B
:100070000003040700000000000000000102040863
:100080001020408001020408102001020408102002
:10009000040404040404040402020202020203032E
:1000A0000303030300000000250028002B000200CA
:1000B00023038F0311241FBECFEFD8E0DEBFCDBFD7
:1000C00011E0A0E0B1E0E6E4FBE002C005900D9293
:1000D000A832B107D9F721E0A8E2B1E001C01D9232
:1000E000A13EB207E1F710E0CAE5D0E003C02197D6
:1000F000FE0121D5C835D107D1F7B8D422C580CFAC
:1001000008951092E0011092DF0108950895089576
:100110001F920F920FB60F9211242F933F934F937C
:100120005F936F937F938F939F93AF93BF93EF935F
:10013000FF93E0910A01F0910B010995FF91EF9176
:10014000BF91AF919F918F917F916F915F914F91EF
:100150003F912F910F900FBE0F901F9018951F92F7
:100160000F920FB60F9211242F933F934F935F93EB
:100170006F937F938F939F93AF93BF93EF93FF936F
:10018000E0910C01F0910D010995FF91EF91BF9164
:10019000AF919F918F917F916F915F914F913F911F
:1001A0002F910F900FBE0F901F9018951F920F92D6
:1001B0000FB60F9211242F933F938F939F93AF937A
:1001C000BF938091290190912A01A0912B01B091B8
:1001D0002C013091280123E0230F2D3720F40196C4
:1001E000A11DB11D05C026E8230F0296A11DB11D5A
:1001F000209328018093290190932A01A0932B0139
:10020000B0932C0180912D0190912E01A0912F018E
:10021000B09130010196A11DB11D80932D019093E5
:100220002E01A0932F01B0933001BF91AF919F9108
:100230008F913F912F910F900FBE0F901F901895A7
:10024000789484B5826084BD84B5816084BD85B5B1
:10025000826085BD85B5816085BDEEE6F0E0808178
:1002600081608083E1E8F0E0108280818260808399
:10027000808181608083E0E8F0E08081816080831C
:10028000E1EBF0E0808184608083E0EBF0E080814E
:1002900081608083EAE7F0E08081846080838081F0
:1002A0008260808380818160808380818068808398
:1002B0001092C1000895833081F028F4813099F0C4
:1002C0008230A1F008958730A9F08830B9F08430E9
:1002D000D1F4809180008F7D03C0809180008F7762
:1002E00080938000089584B58F7702C084B58F7D98
:1002F00084BD08958091B0008F7703C08091B000D5
:100300008F7D8093B00008951F93CF93DF93282FA4
:1003100030E0F901E859FF4F8491F901E458FF4FAB
:10032000D491F901E057FF4FC491CC23C1F0162FAF
:100330008111C1DFEC2FF0E0EE0FFF1FEC55FF4FF6
:10034000A591B4918FB7F894111105C09C91ED2F30
:10035000E095E92302C0EC91ED2BEC938FBFDF9188
:10036000CF911F910895FC01918D228D892F90E0EE
:10037000805C9F4F821B91098F7399270895FC0120
:10038000918D828D981731F0828DE80FF11D858D4A
:1003900090E008958FEF9FEF0895FC01918D828D7D
:1003A000981761F0828DDF01A80FB11D5D968C91C9
:1003B000928D9F5F9F73928F90E008958FEF9FEFD4
:1003C0000895FC01848DDF01A80FB11DA35ABF4F12
:1003D0002C91848D90E001968F739927848FA68944
:1003E000B7892C93A089B1898C9180648C93938D6B
:1003F000848D981306C00288F389E02D80818F7D5B
:1004000080830895CF93DF93EC01888D8823C1F01A
:10041000EA89FB89808185FD05C0A889B9898C910D
:1004200086FD0EC00FB607FCF5CF808185FFF2CFA9
:10043000A889B9898C9185FFEDCFCE01C2DFE8CFC5
:10044000DF91CF910895EF92FF920F931F93CF9377
:10045000DF93EC0181E0888F9B8D8C8D981305C014
:10046000E889F989808185FD23C0F62E0B8D10E087
:100470000F5F1F4F0F731127E02E8C8DE8120BC0FA
:100480000FB607FCFACFE889F989808185FFF5CF9F
:10049000CE0197DFF2CF8B8DFE01E80FF11DE35AFD
:1004A000FF4FF0820B8FEA89FB898081806207C051
:1004B000EE89FF896083E889F9898081806480837F
:1004C00081E090E0DF91CF911F910F91FF90EF902D
:1004D0000895CF92DF92EF92FF921F93CF93DF9315
:1004E000EC016A017B01122FE889F98982E080839F
:1004F0004115514E61057105A9F060E079E08DE389
:1005000090E0A7019601F5D2DA01C9010197A1098E
:10051000B109B695A79597958795AC01411580E1EE
:100520005807A0F0E889F989108260E874E88EE144
:1005300090E0A7019601DDD2BA01A901415051090D
:10054000610971097695679557954795EC85FD8505
:100550005083EE85FF854083188EEC89FD891083DA
:10056000EA89FB89808180618083EA89FB898081B7
:1005700088608083EA89FB89808180688083EA893A
:10058000FB8980818F7D8083DF91CF911F91FF90C8
:10059000EF90DF90CF9008951F920F920FB60F92B9
:1005A00011242F938F939F93EF93FF93E091410139
:1005B000F09142018081E0914701F091480182FD74
:1005C00012C0908180914A018F5F8F7320914B01FF
:1005D000821751F0E0914A01F0E0EF5CFE4F958FF9
:1005E00080934A0101C08081FF91EF919F918F918B
:1005F0002F910F900FBE0F901F9018951F920F9282
:100600000FB60F9211242F933F934F935F936F93E5
:100610007F938F939F93AF93BF93EF93FF9381E368
:1006200091E0CFDEFF91EF91BF91AF919F918F91BC
:100630007F916F915F914F913F912F910F900FBEDE
:100640000F901F901895E1E3F1E01382128288EE7B
:1006500093E0A0E0B0E084839583A683B78385E12F
:1006600091E09183808385EC90E09587848784EC8A
:1006700090E09787868780EC90E0918B808B81EC6F
:1006800090E0938B828B82EC90E0958B848B86EC50
:1006900090E0978B868B118E128E138E148E089598
:1006A0008F929F92AF92BF92CF92DF92EF92FF9282
:1006B0000F931F93CF93DF937C018B016C0182E03A
:1006C000C80ED11C4701E5E08E0E911CC0E0D0E0C1
:1006D000F60161916F014AE050E0C801C5D05C01AC
:1006E0006EE2C80167D08A0D9B1DC80FD91FC814C0
:1006F000D90471F74AE050E0F7016581C801B4D030
:100700008C0F9D1FDF91CF911F910F91FF90EF9064
:10071000DF90CF90BF90AF909F908F900895EEECB8
:10072000F1E085E291E0918380831282138214824A
:1007300015820895CF92DF92EF92FF920F931F934D
:10074000CF93DF936C017A018B01C0E0D0E0CE152E
:10075000DF0589F0D8016D918D01D601ED91FC91F5
:100760000190F081E02DC6010995892B11F47E01DD
:1007700002C02196ECCFC701DF91CF911F910F915D
:10078000FF90EF90DF90CF9008956115710579F09B
:10079000FB0101900020E9F73197AF01461B570B91
:1007A000DC01ED91FC910280F381E02D099480E061
:1007B00090E00895DC01ED91FC910190F081E02D35
:1007C00009944F925F926F927F92EF92FF920F93F4
:1007D0001F93CF93DF93CDB7DEB7A1970FB6F894F1
:1007E000DEBF0FBECDBF7C01FA01CB0119A22230C2
:1007F00008F42AE08E010F5D1F4F422E512C612C10
:10080000712CBF01A301920174D1F901CA010150F9
:1008100011096A3014F4605D01C0695CD8016C9301
:10082000232B242B252B69F7B801C701AEDFA19636
:100830000FB6F894DEBF0FBECDBFDF91CF911F91F1
:100840000F91FF90EF907F906F905F904F90089581
:100850002115310541F4DC01ED91FC910190F0810D
:10086000E02D642F0994ADCF9A01462F50E060E04F
:1008700070E0EECF813039F018F0823051F00895F9
:1008800010926E00089580916F008D7F80936F00AD
:100890000895809170008D7F8093700081E0809337
:1008A000B0008091B100887F84608093B100109285
:1008B000B3000895CF93C82F80910E018C1307C009
:1008C000EEEAF0E0E4918FEF80930E0101C0EFEFCC
:1008D0008E2FD0DF60E08C2FCF9116CD1F920F921C
:1008E0000FB60F9211242F933F934F935F936F9303
:1008F0007F938F939F93AF93BF93EF93FF938091D9
:10090000D7019091D801A091D901B091DA01892B3A
:100910008A2B8B2B51F18091D401E091D501F0917C
:10092000D6019081892780838091D7019091D80149
:10093000A091D901B091DA01181619061A061B0602
:10094000BCF48091D7019091D801A091D901B091C8
:10095000DA010197A109B1098093D7019093D801D9
:10096000A093D901B093DA0103C080910E01A2DFF8
:10097000FF91EF91BF91AF919F918F917F916F9177
:100980005F914F913F912F910F900FBE0F901F904D
:10099000189540E855E260E070E080E090E000C02B
:1009A00026E081E391E095CD1F920F920FB60F9252
:1009B00011242F933F934F935F936F937F938F9364
:1009C0009F93AF93BF93EF93FF938EE19BEF909331
:1009D00085008093840032D0FF91EF91BF91AF9159
:1009E0009F918F917F916F915F914F913F912F9147
:1009F0000F900FBE0F901F9018958EE19BEF909374
:100A0000850080938400AFE6B0E08C918E7F8C935C
:100A1000E0E8F0E080818C7F8083E1E8F0E0808195
:100A2000877E808380818360808380818B7F8083C9
:100A30008C9181608C93089581E008958091DC0110
:100A400091E0980F9093DC01882339F021E030E0A9
:100A50003093DE012093DD0106C0789451DBF894D9
:100A60008091DC0181508093DC0108950F931F93E6
:100A7000CF93DF931F92CDB7DEB781E08983E0DBB0
:100A800088DF00910F0110911001F801118210828E
:100A900038DBB3DF81E0F80120813181232B09F0BD
:100AA00080E089837894789489818823C1F081E0FB
:100AB000F80120813181232B09F480E08093DB0150
:100AC0009091DB0181E0911180E089838981882305
:100AD00011F0B2DF02C080E090E08983E5CF16DB41
:100AE000F89480E090E00F90DF91CF911F910F91EB
:100AF0000895A1E21A2EAA1BBB1BFD010DC0AA1F5F
:100B0000BB1FEE1FFF1FA217B307E407F50720F076
:100B1000A21BB30BE40BF50B661F771F881F991FF1
:100B20001A9469F760957095809590959B01AC013A
:100B3000BD01CF010895EE0FFF1F0590F491E02D48
:060B40000994F894FFCFB8
:100B46000000E10180000100000087008700FFDF50
:100B5600010000000023029A03B301CD01BF010288
:080B6600020000000050030032
:00000001FF
